:020000040800F2
:10000000580400209D010008530C0008A50B0008AF
:10001000510C0008A9020008E50F000800000000CC
:10002000000000000000000000000000570C000865
:10003000AB02000800000000550C0008590C000835
:10004000B7010008B7010008B7010008B7010008B0
:10005000B7010008B7010008B7010008B7010008A0
:10006000B7010008B7010008B7010008B701000890
:10007000B7010008B7010008B7010008B701000880
:10008000B7010008B7010008B7010008B701000870
:10009000B7010008B7010008B7010008B701000860
:1000A000B7010008B7010008B7010008B701000850
:1000B000B7010008B7010008B7010008B701000840
:1000C000B7010008B7010008B7010008B701000830
:1000D000B7010008B7010008B7010008B701000820
:1000E000B7010008B7010008B7010008B701000810
:1000F000B7010008B7010008B7010008B701000800
:10010000B7010008B7010008B7010008B7010008EF
:10011000B7010008B7010008B7010008B7010008DF
:10012000B7010008B7010008B7010008B7010008CF
:10013000B7010008B7010008B7010008B7010008BF
:10014000B7010008B7010008B7010008B7010008AF
:10015000B7010008B7010008B7010008B70100089F
:10016000B7010008B7010008B7010008B70100088F
:10017000B7010008B7010008B7010008000000003F
:10018000B7010008B7010008DFF80CD000F07AF8DA
:10019000004800476D1000085804002006488047BA
:1001A00006480047FEE7FEE7FEE7FEE7FEE7FEE75C
:1001B000FEE7FEE7FEE7FEE7E50C00088901000820
:1001C0002DE9F05F0546002092469B46884606468C
:1001D000814640241BE0284641464746224600F01F
:1001E00041F853465A46C01A914110D31146184659
:1001F000224600F028F82D1A67EB01084F462246E8
:100200000120002100F01FF817EB00094E41201ECD
:10021000A4F10104DFDC484631462A464346BDE8E6
:10022000F09FD2B201E000F8012B491EFBD27047CB
:100230000022F6E710B513460A4604461946FFF7B2
:10024000F0FF204610BD202A04DB203A00FA02F11C
:10025000002070479140C2F1200320FA03F31943B4
:1002600090407047202A04DB203A21FA02F0002156
:10027000704721FA02F3D040C2F1200291400843B6
:1002800019467047064C074D06E0E06840F0010350
:1002900094E8070098471034AC42F6D3FFF778FF94
:1002A000D8100008F8100008FEE7704770470000FB
:1002B00070B5044600F0F2F80546601C02D0044810
:1002C0000078044400F0EAF8401BA042FAD370BD65
:1002D000000000202DE9F84FDFF87CB100224FF03C
:1002E00001084FF0030A4FF00F090BF1040E00BF95
:1002F0000B6808FA02F42340A3426ED14D68022D28
:1003000001D0122D0ED1D50800EB850CDCF8205061
:100310005607F70E09FA07F6B5430E69BE402E439D
:10032000CCF82060066855000F790AFA05FC07F042
:10033000030726EA0C06AF40374307604E68012EDC
:1003400005D0022E03D0112E01D0122E0ED18668B8
:10035000CF6826EA0C06AF40374387604668A6435D
:100360000C79C4F30014944034434460C6688C682C
:1003700026EA0C06AC403443C4604C68E40065D502
:10038000364C256845F480452560246822F0030535
:1003900004F480440094324C2E19D6F8084895078E
:1003A0002F0F09FA07F5AC432E4DA84201D10025C5
:1003B00024E02D4DA84201D101251FE02B4DA8427C
:1003C00001D102251AE02A4DA84201D1032515E0EA
:1003D000284DA84202D1042510E037E0264DA8425E
:1003E00001D105250AE0254DA84201D1062505E0E9
:1003F000234DA84201D1072500E00825BD40254333
:10040000C6F80858DBF800405D464E689C43F6038A
:1004100000D51C432C60DEF8004075464E689C43B6
:10042000B60300D51C432C600B4D08352C684E6874
:100430009C43F60200D51C432C60074D0C352C68FC
:100440004E689C43B60200D51C432C60521C102AF7
:10045000FFF44EAFBDE8F88F003C01404438024045
:100460000030014000000240000402400008024049
:10047000000C02400010024000140240001802402C
:10048000001C0240426931EA020200D10904816184
:1004900070470AB1816170470904FBE70148806831
:1004A0007047000000000020024881680278114473
:1004B00081607047000000200B4810B5016841F4CE
:1004C00000710160016841F480610160016841F4DC
:1004D00080710160032000F061F8002000F006F850
:1004E00000F024F8002010BD003C024070B50D4D16
:1004F00004464FF47A712878B1FBF0F00A49096894
:10050000B1FBF0F000F0D2FA48B9102C07D200226B
:100510002146501E00F022F800206C6070BD0120C2
:1005200070BD0000000000200C0000200A4808B543
:10053000016841F480410160006800F4804000904F
:100540000548001F016841F080510160006800F01B
:100550008050009008BD000044380240F0B40E4BBB
:100560001B680C46C3F30223C3F10705042D00D911
:100570000425191D072901D2002300E0DB1E0126F6
:1005800006FA05F1491E214099409E40761E16400C
:100590003143F0BC00F030BD0CED00E0064900F046
:1005A000070208684FF6FF03184040EA0220034A9A
:1005B00010430860704700000CED00E00000FA05F1
:1005C0002DE9F0470E46050065D0DFF81481D8F814
:1005D0000000F7B200F00F00B04207D288F80070B8
:1005E000D8F8000000F00F00B04254D128683D4C0C
:1005F000810712D5400703D5206840F4E050206001
:100600002878000703D5206840F460402060206807
:10061000A96820F0F000084320602878C0072DD09A
:10062000304968680839012812D0022813D00328FD
:1006300011D00968890700292DDA216821F003010A
:1006400001432160FFF72AFF814641F2883A0EE01C
:1006500009688903EFE709688901ECE7FFF71EFFE6
:10066000A0EB0901514502D90320BDE8F0872068BD
:10067000696800F00C00B0EB810FEFD1D8F80010E2
:10068000404601F00F01B14207D90770006800F041
:100690000F00B04201D00120E7E72878400705D5D8
:1006A0002068E96820F4E0500843206028780007BB
:1006B00006D52068296920F4604040EAC100206026
:1006C00000F036F82168084AC1F30311515CC840B4
:1006D000064908600020FFF709FF0020C5E7000079
:1006E000003C024008380240C01000080C00002006
:1006F0000448054900680968044AC1F38221515C35
:10070000C84070470C00002008380240D010000894
:100710000448054900680968044AC1F34231515C44
:10072000C84070470C00002008380240D010000874
:10073000154810B5006810F00C02144813D0411091
:10074000042A0FD0082A0ED10F4C241F22682368D8
:1007500002F03F025B0207D52068C0F38810A0FBBF
:10076000010106E0084610BD2168C1F38811A1FB14
:1007700000010023FFF724FD2168C1F30141491C5A
:100780004900B0FBF1F010BD083802400024F4002D
:100790002DE9F84F050076D02878DFF8F8B2BE4C86
:1007A000C00749D0DBF800105846C1F38101012988
:1007B00008D00068C0F3810002280AD1201D00681B
:1007C000400206D52068800336D568680028E2D04C
:1007D00032E06868B0F5803F10D0B0F5A02F2068F7
:1007E00010D020F480302060206820F48020206029
:1007F0006868A0B1FFF752FE06460CE0206840F49E
:100800008030F4E740F480202060F7E7FFF746FEF1
:10081000801B642873D820688003F7D50CE0FFF7AD
:100820003DFE064605E000BFFFF738FE801B64284A
:10083000F0D820688003F7D42878DFF8608280073A
:100840004FF000093ED5DBF80010584611F00C0FB0
:1008500009D00068C0F3810002280BD18D48001F29
:100860000068400206D42068800715D5E868012892
:1008700009D111E0E868B8B10120C8F80000FFF71D
:100880000DFE064605E002E1FFF708FE801B022888
:10089000C0D820688007F7D52068296920F0F800C3
:1008A00040EAC10020600DE0C8F80090FFF7F6FDB7
:1008B000064604E0FFF7F2FD801B02281FD82068DF
:1008C0008007F7D42878000722D5724E74486969EA
:1008D0006C3671B101210160FFF7E0FD074604E0CD
:1008E000FFF7DCFDC01B022809D830688007F7D568
:1008F0000EE0C0F80090FFF7D1FD074605E083E069
:10090000FFF7CCFDC01B02287ED830688007F7D4E3
:100910002878400768D5DFF87CA100270AF1380A5B
:10092000DAF80000C0000BD4DAF8001041F0805172
:10093000CAF80010DAF80000012700F0805000909B
:10094000584E3068C00510D4306840F48070306074
:10095000FFF7A4FD009005E0FFF7A0FD0099401A05
:10096000022851D83068C005F6D54A4EA8686836C6
:1009700001280FD00528306810D020F00100306029
:10098000306820F004003060A868B8B1FFF786FD39
:1009900000900FE0306840F00100F4E740F0040000
:1009A0003060F7E7FFF77AFD0099411A41F288308D
:1009B000814264D830688007F4D50EE0FFF76EFD01
:1009C000009007E0FFF76AFD0099411A41F2883074
:1009D000814254D830688007F4D42FB1DAF800107F
:1009E00021F08051CAF80010A869C0B3DBF80010EC
:1009F000C1F3810102294AD00228484607D0C8F82D
:100A00006000FFF74BFD00E039E005463AE047465D
:100A1000C8F86000FFF742FD064604E0FFF73EFD20
:100A2000801B02282BD820688001F7D4D5E9070164
:100A30000843A96A1C4A490802EB01416A6A41EA73
:100A40008211084395F82C1040EA01611148001FFB
:100A5000016001203866FFF721FD054605E014E03E
:100A6000FFF71CFD401B022809D820688001F7D53C
:100A70000BE000BFFFF712FD401B022802D9032044
:100A8000BDE8F88F20688001F4D40020F8E7012049
:100A9000F6E70000083802400038024000004742F4
:100AA000800E4742007000400000FFFF10B5401E5E
:100AB000B0F1807F01D3012010BD4FF0E0246061D0
:100AC0000F21601700F098FA0020A0610720206134
:100AD000002010BD70B5040004D094F83900002542
:100AE00010B106E0012070BD84F83850204600F0B7
:100AF00023F8242084F839002068C16821F40051CB
:100B0000C160204600F018F92068016921F4904185
:100B100001612068416921F02A0141612068C168B2
:100B200041F40051C160E563202084F8390084F865
:100B30003A00002070BD000010B586B004461421B4
:100B40006846FFF775FB14492068884221D1134895
:100B5000016841F010010160006800F0100005908C
:100B60000E481438016841F00101016000686946CF
:100B700000F0010005904FF4C06000900220019049
:100B80000120029003200390072004900448FFF7FF
:100B9000A1FB06B010BD0000001001404438024027
:100BA00000000240FEE7000070B586B014216846E0
:100BB000FFF73EFB16480025016841F02001016067
:100BC000016801F020010591016841F08001016098
:100BD000016801F080010591016841F001010160A7
:100BE00000680C4E00F001004FF4C0640590012233
:100BF00021463046FFF74DFC0121CDE90041CDE90A
:100C0000021569463046FFF765FB06B070BD00006F
:100C100030380240001402400C4810B50A49016007
:100C20004FF4E1314160002181600C22C160C0E9D4
:100C300004128161C161FFF74DFF002803D0BDE8B8
:100C40001040FFF733BB10BD00100140140000201E
:100C5000FEE7704770477047FFF726BC30B593B08A
:100C600030216846FFF7E4FA14210CA8FFF7E0FAF8
:100C70001A480025016841F080510160006800F0C9
:100C8000805011901648016841F48041016000686D
:100C9000022400F480401190012000900004019093
:100CA0008001CDE90640082008904FF4A870CDE9F6
:100CB000090404200B906846FFF76AFD0CA90F2079
:100CC00081E831004FF4A0500F90E0021090052110
:100CD0000CA8FFF775FC13B030BD0000403802408F
:100CE000007000401048016841F4700101600F4835
:100CF000016841F0010101600C4A002108321160D5
:100D000002680B4B1A400260031D0A4A1A6002680F
:100D100022F48022026005480C3001600249580626
:100D2000803908607047000088ED00E0003802401C
:100D3000FFFFF6FE103000242DE9F0410446006864
:100D40000169E26821F44051114301612169A06801
:100D5000E26908436169114322680843D16849F296
:100D60000C6399430143D16020684169A26921F471
:100D7000407111434161E2696425B2F5004F974823
:100D8000974922684FF032083FD08A4201D0824210
:100D90007CD1FFF7BDFC00EBC00101EB00106168E6
:100DA0008900B0FBF1F6FFF7B3FC00EBC00101EBEB
:100DB000001061688900B0FBF1F0B0FBF5F06FF056
:100DC0001801484306EB800108EB0110B0FBF5F079
:100DD00000F0F006FFF79CFC00EBC00101EB0010F7
:100DE00061688900B0FBF1F0B0FBF5F006EB00168E
:100DF000FFF78EFC00EBC00101EB00106168890079
:100E0000B0FBF1F7FFF784FCD2E08A4201D08242C6
:100E10003DD1FFF77DFC00EBC00101EB00106168E4
:100E20004900B0FBF1F0B0FBF5F00601FFF770FCF4
:100E300000EBC00101EB001061684900B0FBF1F765
:100E4000FFF766FC00EBC00101EB00106168490090
:100E5000B0FBF1F0B0FBF5F06FF01801484307EB81
:100E6000800108EBC100B0FBF5F000F0F80006EBE4
:100E70004006FFF74DFC00EBC00101EB001061687C
:100E80004900B0FBF1F7FFF743FC3CE055E0FFF70A
:100E90002FFC00EBC00101EB001061684900B0FBC2
:100EA000F1F0B0FBF5F00601FFF722FC00EBC0010A
:100EB00001EB001061684900B0FBF1F7FFF718FC87
:100EC00000EBC00101EB001061684900B0FBF1F0DC
:100ED000B0FBF5F06FF01801484307EB800108EB19
:100EE000C100B0FBF5F000F0F80006EB4006FFF79C
:100EF000FFFB00EBC00101EB001061684900B0FB93
:100F0000F1F7FFF7F5FB00EBC00101EB00106168A2
:100F10004900B0FBF1F0B0FBF5F06FF01801484369
:100F200007EB800108EBC100B0FBF5F000F0070013
:100F3000216830448860BDE8F081FFF7D9FB00EB01
:100F4000C00101EB001061688900B0FBF1F6FFF70A
:100F5000CFFB00EBC00101EB001061688900B0FB22
:100F6000F1F0B0FBF5F06FF01801484306EB80019B
:100F700008EB0110B0FBF5F000F0F006FFF7B8FB4E
:100F800000EBC00101EB001061688900B0FBF1F0DB
:100F9000B0FBF5F006EB0016FFF7AAFB00EBC00173
:100FA00001EB001061688900B0FBF1F7FFF7A0FBCF
:100FB00000EBC00101EB001061688900B0FBF1F0AB
:100FC000B0FBF5F06FF01801484307EB800108EB28
:100FD0000110B0FBF5F000F00F00A9E7001401408C
:100FE00000100140FEE70000014A024900F023B86A
:100FF00059100008100000200907090E002804DB22
:1010000000F1E02080F80014704700F00F0000F1BC
:10101000E02080F8141D704702E008C8121F08C1C4
:10102000002AFAD170477047002001E001C1121F69
:10103000002AFBD170472DE9F04116460F460446C1
:10104000002503E03946B047641C6D1C2078002859
:10105000F8D12846BDE8F08103490A685206FCD55C
:10106000C2B24A607047000000100140FFF724FA46
:10107000FFF7F4FDFFF798FDFFF7CEFD074E4FF4A5
:101080007A744FF4007506A0FFF7AEFF2046FFF715
:101090000FF929463046FFF7F5F9F4E7001402404E
:1010A00077656C636F6D6520746F2073746D333278
:1010B000663430375F637562650D0A2E2E000000BE
:1010C00000000000000000000102030406070809F8
:1010D0000000000001020304F810000800000020D6
:1010E00014000000181000080C1100081400002063
:1010F0004404000028100008010000001000000057
:0C110000000000000024F40000000000CB
:040000050800018965
:00000001FF
